:040000008031202803
:100008007E1480312E00961E0A280B2813288C1E79
:100018000E280F2813288531852580311E28161EA5
:10002800162817281E280C1E1A281B281E2885315A
:10003800D02580317E100900803122282000E90176
:10004800EA01EB01EC01A030840000308500263085
:100058008531F12580317E1020008431FE2C20006E
:10006800BF003008C0003108C1003208C2003308A0
:10007800C3003408C4003508C5003608C600370870
:10008800C7004030860000308700473FB800B81BE3
:100098004E2850280130512800302000CA004A0854
:1000A8000319572858287628C009C109C209C30965
:1000B800C409C509C609C709C00A031D7628C10AAB
:1000C800031D7628C20A031D7628C30A031D762855
:1000D800C40A031D7628C50A031D7628C60A031D0F
:1000E8007628C70A21002308803A2000B80080300B
:1000F8003802031D822801302100220203188528B6
:1001080086288C2801302000BB000030BC009428D1
:10011800210023082000BC00210022082000BB0089
:10012800210021082000BE00210020082000BD0079
:100138004A080319A028A128B528FF30BD07FF30B9
:10014800BE3D4A08031DA928AA28AF282B30B900AC
:100158000030BA00B3282D30B9000030BA00390891
:10016800CA001F30C8000030C9002100C501242979
:10017800FF302000C807FF30C93D0A30A000A101A8
:10018800A201A301A401A501A601A7014008A80096
:100198004108A9004208AA004308AB004408AC0083
:1001A8004508AD004608AE004708AF008231692215
:1001B800803120002108F4002008F30085313B2518
:1001C80080317308303E2000B8004808A63E8600FB
:1001D800870138088100FF30BB07FF30BC3DFF3086
:1001E800BD07FF30BE3D0A30A000A101A201A30156
:1001F800A401A501A601A7014008A8004108A9007B
:100208004208AA004308AB004408AC004508AD000A
:100218004608AE004708AF008131682180312000D0
:100228002008C0002108C1002208C2002308C3001A
:100238002408C4002508C5002608C6002708C700EA
:1002480020004908803AB80080303802031D2E2962
:1002580001304802031C312932294C29200040086A
:100268004104420443044404450446044704031D6E
:100278003E293F29BC283C08803AB8008030380223
:10028800031D482901303B0203184B294C29BC287F
:1002980020004A080319512952295C29FF30C80750
:1002A800FF30C93D4808A63E860087014A088100FC
:1002B8004808A63EA4003E08A6003D08A5003F0841
:1002C8008431832480310800F20120308600003018
:1002D8008700473FF000F01F7229732994292000F6
:1002E800A009A109A209A309A409A509A609A709A2
:1002F800A00A031D9229A10A031D9229A20A031D1F
:100308009229A30A031D9229A40A031D9229A50A6A
:10031800031D9229A60A031D9229A70AF201F20ACF
:100328002830860000308700473FF000F01F9D29E5
:100338009E29C1292000A809A909AA09AB09AC0965
:10034800AD09AE09AF09A80A031DBD29A90A031DF5
:10035800BD29AA0A031DBD29AB0A031DBD29AC0A84
:10036800031DBD29AD0A031DBD29AE0A031DBD2904
:10037800AF0A0130F0007008F206733086000030D2
:1003880087000830F00000301E00F00BC82920005C
:100398002008210422042304240425042604270415
:1003A8000319D729D829342AF101F10AE729A035F8
:1003B800A10DA20DA30DA40DA50DA60DA70D01302D
:1003C800F0007008F107A71FEA29EB29DB29F335AC
:1003D800F40DF50DF60DF70DF80DF90DFA0D2708CA
:1003E8002F02031D112A26082E02031D112A250893
:1003F8002D02031D112A24082C02031D112A23088B
:100408002B02031D112A22082A02031D112A210882
:100418002902031D112A20082802031C142A152A60
:10042800262A2008A8022108A93B2208AA3B23085B
:10043800AB3B2408AC3B2508AD3B2608AE3B270860
:10044800AF3B7314A736A60CA50CA40CA30CA20CE6
:10045800A10CA00C0130F102031D332A342AEB2928
:1004680072080319382A392A572AF309F409F509B1
:10047800F609F709F809F909FA09F30A031D572AD1
:10048800F40A031D572AF50A031D572AF60A031D05
:10049800572AF70A031D572AF80A031D572AF90A8B
:1004A800031D572AFA0A73082000A0007408A10047
:1004B8007508A2007608A3007708A4007808A500AC
:1004C8007908A6007A08A7000800F20128308600FB
:1004D80000308700473FF000F01F732A742A952ADE
:1004E8002000A809A909AA09AB09AC09AD09AE09F8
:1004F800AF09A80A031D932AA90A031D932AAA0A69
:10050800031D932AAB0A031D932AAC0A031D932AE1
:10051800AD0A031D932AAE0A031D932AAF0AF201FE
:10052800F20A2030860000308700473FF000F01FB5
:100538009E2A9F2ABE2A2000A009A109A209A30970
:10054800A409A509A609A709A00A031DBE2AA10A8C
:10055800031DBE2AA20A031DBE2AA30A031DBE2A22
:10056800A40A031DBE2AA50A031DBE2AA60A031D46
:10057800BE2AA70A200020082104220423042404F8
:100588002504260427040319CA2ACB2A1E2BF101A5
:10059800F10ADA2AA035A10DA20DA30DA40DA50D0F
:1005A800A60DA70D0130F0007008F107A71FDD2A7E
:1005B800DE2ACE2A27082F02031DFC2A26082E022F
:1005C800031DFC2A25082D02031DFC2A24082C02E1
:1005D800031DFC2A23082B02031DFC2A22082A02D9
:1005E800031DFC2A21082902031DFC2A20082802D1
:1005F800031CFF2A002B102B2008A8022108A93B66
:100608002208AA3B2308AB3B2408AC3B2508AD3B9A
:100618002608AE3B2708AF3BA736A60CA50CA40CB2
:10062800A30CA20CA10CA00C0130F102031D1D2B80
:100638001E2BDE2A72080319222B232B412BA80913
:10064800A909AA09AB09AC09AD09AE09AF09A80AFD
:10065800031D412BA90A031D412BAA0A031D412B87
:10066800AB0A031D412BAC0A031D412BAD0A031D28
:10067800412BAE0A031D412BAF0A20002808A00019
:100688002908A1002A08A2002B08A3002C08A4000E
:100698002D08A5002E08A6002F08A7000800200096
:1006A800D9004B0886008701403FCD00413FCE006E
:1006B8004D0884004E0885001200253A031D652B5D
:1006C800662BDD2B4B0886008701013081074131FD
:1006D8000318810A2100A001A101031000300318AA
:1006E80001302000EB00FF302100A200FF30A30002
:1006F80020004B0886008701403FDA00413FDB00BD
:100708005A0884005B0885001200643A03198D2B8F
:100718008E2B982B5A0884005B0885001200693AD2
:10072800031D972B982BD32B4C08860087010108B3
:100738008400850102308107003FCD00013FCE00D3
:100748004D08D1004E08D200890D893B8909D30094
:10075800D400D500D600D700D8005A08013ECD00F5
:1007680000305B3DCE004B08860087014D08C03F36
:100778004E08C13F5108B0005208B1005308B200FA
:100788005408B3005508B4005608B5005708B60019
:100798005808B7005908803133208331F52B2000E1
:1007A8004B08860087010130810741310318810A0F
:1007B800F52B4B0886008701403FCD00413FCE0016
:1007C8004D0884004E0885000008CF00D0014F086E
:1007D800F2005008F3005908F400843142248331B0
:1007E800D32B080020009A019901960197019801DE
:1007F80007309500EF309100FF309200BF30930032
:10080800FF309400FF303E00D9007F30CE00EF303B
:10081800C3000730E400EF30B800DA01E501C40195
:10082800B901CF01E601BA01C501D001DB01FF30F2
:10083800BB00FF30C600FF30D100FF30DC000730BE
:10084800E700FF30BC00FF30C700FF30D200FF30A8
:10085800DD000730E8004A1249164812E930F00076
:100868000530F1008631032683312E001616173025
:100878003D00CB0010303E00A600080074080319A4
:10088800462C472C4C2C7408031D4B2C4C2C512CFB
:1008980072088531F7258431822C7408083E860059
:1008A80087011600010403195A2C5B2C792C740853
:1008B800083E86008701403FF500413FF600740876
:1008C800023E86008701403FF700413FF800780864
:1008D800803AF9007608803A7902031D752C75086C
:1008E80077020318782C792C822C7408023E860033
:1008F80087010130810741310318810A080020006F
:10090800AB00A61B882C892C8E2C2608AA0025084B
:10091800A900902CA901AA01A701A801A22C2030A6
:10092800F2000030F30020002B08F4008431422448
:10093800843101302000A7070030A83D2808803AFC
:10094800FD002A08803A7D02031DAC2C29082702E5
:10095800031CAF2CB02C932C20002B08FA00240881
:100968008431B824843108002000A300A101A20129
:10097800CE2C2008FB00FC017B08F2007C08F30069
:100988007A08F40084314224843101302000A10720
:100998000030A23D21082307FB007B088600870161
:1009A8000108A0002008031DDA2CDB2CBD2C080050
:1009B800083022009F0090309D0024309E0019309E
:1009C8009B009C010030F0000030F10086310F26BA
:1009D80084310030F0000030F1008631092684317E
:1009E8000030F0000030F1008631152684312000F7
:1009F800EC0108008531992584318B170B171B30C2
:100A08002000E3008630E400210025082000E600ED
:100A1800210024082000E5008531B82584316230A2
:100A28002000E8006530890B172DE80B172D0032E0
:100A3800032D803120282000E0005D08E2005C08DA
:100A4800E1002E2D6130CB005E08CC0060088331B8
:100A58005323853120006108840062088500120054
:100A6800031D372D382D262DDC01DD010800740803
:100A7800803AF50080307502031D442D0130730261
:100A88000318472D482D542D7309F5007409F600F5
:100A9800F50A0319F60A7508F3007608F400542DD0
:100AA8000800643020009F000B309D00DC309C0063
:100AB8001D08EE001C08ED002E008C1296166E30F4
:100AC800F0000530F1008531FD258531903020009A
:100AD8009E00080003102000161E03140318752D2D
:100AE800782D200016167A2D200016126A0821008B
:100AF800A500200069082100A4002000E901EA01FE
:100B080008002E008C1220006E089D006D089C00C5
:100B180021004C084D040319922D932D982D4D0852
:100B28008A004C080A00853108008531D9258531AD
:100B38008331F62385318531E12585318531552588
:100B480085318431DC248531080021004E084F04AA
:100B58000319AF2DB02DB52D4F088A004E080A0095
:100B680085313E004A12080065302000E70064081D
:100B7800DD006308DC006730DE00003085311F25AA
:100B880085310800F0002E000F1ECB2DCC2DC72D6F
:100B9800700822009A0008003E004A1ED42DD52D68
:100BA800D82D8531A925853108002F009601970198
:100BB800980199019A019B010800603031008D006D
:100BC8008F01910193019201080020006908013EFC
:100BD800E90000306A3DEA00080064008001013144
:100BE800890BF22D0034F10071088531C625853155
:100BF800080071082100CD007008CC0008007108B9
:100C08002100CF007008CE00080071082100C9003B
:100C18007008C800080071082100CB007008CA00DD
:100C2800080071082100C7007008C60008002534B4
:060C380069340A340034A7
:020000040001F9
:08000000FF3FFF3FFF3FFF3F00
:0A000E00EC3FFF3F9F3FFF3FFF3F25
:00000001FF
